{
  "contractName": "DataSaver",
  "abi": [
    {
      "constant": true,
      "inputs": [
        {
          "name": "",
          "type": "uint256"
        }
      ],
      "name": "datafood",
      "outputs": [
        {
          "name": "ID",
          "type": "uint256"
        },
        {
          "name": "FoodName",
          "type": "string"
        },
        {
          "name": "CompanyName",
          "type": "string"
        },
        {
          "name": "dataCount",
          "type": "uint256"
        },
        {
          "name": "date",
          "type": "string"
        }
      ],
      "payable": false,
      "stateMutability": "view",
      "type": "function"
    },
    {
      "constant": true,
      "inputs": [],
      "name": "dataCount",
      "outputs": [
        {
          "name": "",
          "type": "uint256"
        }
      ],
      "payable": false,
      "stateMutability": "view",
      "type": "function"
    },
    {
      "constant": true,
      "inputs": [],
      "name": "CompanyAddress",
      "outputs": [
        {
          "name": "",
          "type": "address"
        }
      ],
      "payable": false,
      "stateMutability": "view",
      "type": "function"
    },
    {
      "constant": false,
      "inputs": [
        {
          "name": "ID",
          "type": "uint256"
        },
        {
          "name": "FoodName",
          "type": "string"
        },
        {
          "name": "CompanyName",
          "type": "string"
        },
        {
          "name": "date",
          "type": "string"
        }
      ],
      "name": "newData",
      "outputs": [],
      "payable": false,
      "stateMutability": "nonpayable",
      "type": "function"
    },
    {
      "constant": false,
      "inputs": [],
      "name": "Test",
      "outputs": [],
      "payable": false,
      "stateMutability": "nonpayable",
      "type": "function"
    },
    {
      "constant": false,
      "inputs": [
        {
          "name": "companyAddress",
          "type": "address"
        }
      ],
      "name": "giveRightToAddData",
      "outputs": [],
      "payable": false,
      "stateMutability": "nonpayable",
      "type": "function"
    }
  ],
  "bytecode": "0x608060405234801561001057600080fd5b50610ad8806100206000396000f3fe608060405260043610610078576000357c0100000000000000000000000000000000000000000000000000000000900463ffffffff1680632d9d10f91461007d5780635312353a146100ce5780635da40c47146102685780636138101314610293578063a163a624146102ea578063af5691de14610301575b600080fd5b34801561008957600080fd5b506100cc600480360360208110156100a057600080fd5b81019080803573ffffffffffffffffffffffffffffffffffffffff169060200190929190505050610501565b005b3480156100da57600080fd5b50610107600480360360208110156100f157600080fd5b81019080803590602001909291905050506105cd565b60405180868152602001806020018060200185815260200180602001848103845288818151815260200191508051906020019080838360005b8381101561015b578082015181840152602081019050610140565b50505050905090810190601f1680156101885780820380516001836020036101000a031916815260200191505b50848103835287818151815260200191508051906020019080838360005b838110156101c15780820151818401526020810190506101a6565b50505050905090810190601f1680156101ee5780820380516001836020036101000a031916815260200191505b50848103825285818151815260200191508051906020019080838360005b8381101561022757808201518184015260208101905061020c565b50505050905090810190601f1680156102545780820380516001836020036101000a031916815260200191505b509850505050505050505060405180910390f35b34801561027457600080fd5b5061027d6107cb565b6040518082815260200191505060405180910390f35b34801561029f57600080fd5b506102a86107d1565b604051808273ffffffffffffffffffffffffffffffffffffffff1673ffffffffffffffffffffffffffffffffffffffff16815260200191505060405180910390f35b3480156102f657600080fd5b506102ff6107f6565b005b34801561030d57600080fd5b506104ff6004803603608081101561032457600080fd5b81019080803590602001909291908035906020019064010000000081111561034b57600080fd5b82018360208201111561035d57600080fd5b8035906020019184600183028401116401000000008311171561037f57600080fd5b91908080601f016020809104026020016040519081016040528093929190818152602001838380828437600081840152601f19601f820116905080830192505050505050509192919290803590602001906401000000008111156103e257600080fd5b8201836020820111156103f457600080fd5b8035906020019184600183028401116401000000008311171561041657600080fd5b91908080601f016020809104026020016040519081016040528093929190818152602001838380828437600081840152601f19601f8201169050808301925050505050505091929192908035906020019064010000000081111561047957600080fd5b82018360208201111561048b57600080fd5b803590602001918460018302840111640100000000831117156104ad57600080fd5b91908080601f016020809104026020016040519081016040528093929190818152602001838380828437600081840152601f19601f820116905080830192505050505050509192919290505050610944565b005b8073ffffffffffffffffffffffffffffffffffffffff163373ffffffffffffffffffffffffffffffffffffffff161415156105ca576040517f08c379a000000000000000000000000000000000000000000000000000000000815260040180806020018281038252602f8152602001807f4f6e6c7920436f6d70616e79416464726573732063616e20676976652072696781526020017f687420746f2061646420646174612e000000000000000000000000000000000081525060400191505060405180910390fd5b50565b6001602052806000526040600020600091509050806000015490806001018054600181600116156101000203166002900480601f01602080910402602001604051908101604052809291908181526020018280546001816001161561010002031660029004801561067f5780601f106106545761010080835404028352916020019161067f565b820191906000526020600020905b81548152906001019060200180831161066257829003601f168201915b505050505090806002018054600181600116156101000203166002900480601f01602080910402602001604051908101604052809291908181526020018280546001816001161561010002031660029004801561071d5780601f106106f25761010080835404028352916020019161071d565b820191906000526020600020905b81548152906001019060200180831161070057829003601f168201915b505050505090806003015490806004018054600181600116156101000203166002900480601f0160208091040260200160405190810160405280929190818152602001828054600181600116156101000203166002900480156107c15780601f10610796576101008083540402835291602001916107c1565b820191906000526020600020905b8154815290600101906020018083116107a457829003601f168201915b5050505050905085565b60025481565b6000809054906101000a900473ffffffffffffffffffffffffffffffffffffffff1681565b60a060405190810160405280607081526020016040805190810160405280600c81526020017fe6b58be8af95e789a9e59381000000000000000000000000000000000000000081525081526020016040805190810160405280601581526020017fe59388e5b094e6bba8e5b7a5e4b89ae5a4a7e5ada60000000000000000000000815250815260200160025481526020016040805190810160405280600981526020017f323031392e332e3134000000000000000000000000000000000000000000000081525081525060016000600181526020019081526020016000206000820151816000015560208201518160010190805190602001906108fa929190610a07565b506040820151816002019080519060200190610917929190610a07565b5060608201518160030155608082015181600401908051906020019061093e929190610a07565b50905050565b60026000815480929190600101919050555060a060405190810160405280858152602001848152602001838152602001600254815260200182815250600160008681526020019081526020016000206000820151816000015560208201518160010190805190602001906109b9929190610a07565b5060408201518160020190805190602001906109d6929190610a07565b506060820151816003015560808201518160040190805190602001906109fd929190610a07565b5090505050505050565b828054600181600116156101000203166002900490600052602060002090601f016020900481019282601f10610a4857805160ff1916838001178555610a76565b82800160010185558215610a76579182015b82811115610a75578251825591602001919060010190610a5a565b5b509050610a839190610a87565b5090565b610aa991905b80821115610aa5576000816000905550600101610a8d565b5090565b9056fea165627a7a72305820ed504eab2a72b1894ea763448f56bf6a1ce9e2cb9991f5bef31ae9ed06a07b5a0029",
  "source": "pragma solidity >=0.4.22 <0.6.0;\n\ncontract DataSaver\n{\n    // This declares a new complex type which will\n    // be used for variables later.\n    // It will represent a single voter.\n    struct dataFood\n    {\n        uint ID; // weight is accumulated by delegation\n        string FoodName;\n        string CompanyName;\n        //address CompanyAddress; // person delegated to\n        uint dataCount;\n        string date;   // index of the voted proposal\n    }\n\n    // This is a type for a single proposal.\n    struct Proposal {\n        bytes32 name;   // short name (up to 32 bytes)\n        uint voteCount; // number of accumulated votes\n    }\n\n    address public CompanyAddress;\n    //Store dataFood 向这个mapping中添加数据就会修改状态，存入到区块链中\n    //相当于一个数组 通过datafood（ID）来访问对应的数据\n    mapping(uint => dataFood) public datafood;\n    //记录mapping中数据的数量\n    uint public dataCount;\n    //私有链所有节点都需要权限进行写入    暂时设计为public\n\n    /* function newData(uint ID , bytes32 FoodName, bytes32 CompanyName,bytes32 date ) public\n    {\n      dataCount++;\n      datafood[dataCount] = dataFood(ID,FoodName,CompanyName,dataCount,date);\n    } */\n    function newData(uint ID , string memory FoodName, string memory CompanyName,string memory date ) public\n    {\n      dataCount++;\n      datafood[ID] = dataFood(ID,FoodName,CompanyName,dataCount,date);\n    }\n\n    function Test() public\n    {\n      datafood[1] = dataFood(112,'测试物品','哈尔滨工业大学',dataCount,'2019.3.14');\n    }\n\n    /* function TestInput(uint ID , bytes32 FoodName, bytes32 CompanyName,bytes32 date) public\n    {\n      datafood[ID] = dataFood(ID,FoodName,CompanyName,dataCount,date);\n    } */\n\n\n\n    // May only be called by `CompanyAddress`.\n    function giveRightToAddData(address companyAddress) public\n    {\n        require(\n            msg.sender == companyAddress,\n            \"Only CompanyAddress can give right to add data.\"\n        );\n    }\n\n}\n",
  "sourcePath": "/home/fky/node2/pet-shopt/contracts/DataSaver.sol",
  "compiler": {
    "name": "solc",
    "version": "0.5.0+commit.1d4f565a.Emscripten.clang"
  },
  "schemaVersion": "3.0.0",
  "updatedAt": "2019-03-15T03:26:41.895Z",
  "devdoc": {
    "methods": {}
  },
  "userdoc": {
    "methods": {}
  }
}